{
  "address": "0x804AEFEa2C8297ac1296c825e74884127c6c7c4A",
  "abi": [
    {
      "inputs": [
        {
          "internalType": "address",
          "name": "priceFeedAddress",
          "type": "address"
        }
      ],
      "stateMutability": "nonpayable",
      "type": "constructor"
    },
    {
      "inputs": [],
      "name": "FundMe__CallFailed",
      "type": "error"
    },
    {
      "inputs": [],
      "name": "FundMe__NotEnoughEther",
      "type": "error"
    },
    {
      "inputs": [],
      "name": "FundMe__Unauthorized",
      "type": "error"
    },
    {
      "stateMutability": "payable",
      "type": "fallback"
    },
    {
      "inputs": [],
      "name": "fund",
      "outputs": [],
      "stateMutability": "payable",
      "type": "function"
    },
    {
      "inputs": [
        {
          "internalType": "address",
          "name": "funder",
          "type": "address"
        }
      ],
      "name": "getAmountFunded",
      "outputs": [
        {
          "internalType": "uint256",
          "name": "",
          "type": "uint256"
        }
      ],
      "stateMutability": "view",
      "type": "function"
    },
    {
      "inputs": [],
      "name": "getCurrentPrice",
      "outputs": [
        {
          "internalType": "uint256",
          "name": "",
          "type": "uint256"
        }
      ],
      "stateMutability": "view",
      "type": "function"
    },
    {
      "inputs": [
        {
          "internalType": "uint256",
          "name": "index",
          "type": "uint256"
        }
      ],
      "name": "getFunder",
      "outputs": [
        {
          "internalType": "address",
          "name": "",
          "type": "address"
        }
      ],
      "stateMutability": "view",
      "type": "function"
    },
    {
      "inputs": [],
      "name": "getOwner",
      "outputs": [
        {
          "internalType": "address",
          "name": "",
          "type": "address"
        }
      ],
      "stateMutability": "view",
      "type": "function"
    },
    {
      "inputs": [],
      "name": "getPriceFeed",
      "outputs": [
        {
          "internalType": "contract AggregatorV3Interface",
          "name": "",
          "type": "address"
        }
      ],
      "stateMutability": "view",
      "type": "function"
    },
    {
      "inputs": [],
      "name": "withdraw",
      "outputs": [],
      "stateMutability": "nonpayable",
      "type": "function"
    },
    {
      "stateMutability": "payable",
      "type": "receive"
    }
  ],
  "transactionHash": "0x5d3633835b96b7bb3e21dc088688b19db1da7db4beaabb7c18941276e02ab1f4",
  "args": [
    "0xD4a33860578De61DBAbDc8BFdb98FD742fA7028e"
  ],
  "numDeployments": 1,
  "solcInputHash": "5d7eaa4dc2a34f1d16feac7b48497294",
  "bytecode": "0x60a060405234801561001057600080fd5b50604051610e00380380610e0083398181016040528101906100329190610110565b3373ffffffffffffffffffffffffffffffffffffffff1660808173ffffffffffffffffffffffffffffffffffffffff168152505080600260006101000a81548173ffffffffffffffffffffffffffffffffffffffff021916908373ffffffffffffffffffffffffffffffffffffffff1602179055505061013d565b600080fd5b600073ffffffffffffffffffffffffffffffffffffffff82169050919050565b60006100dd826100b2565b9050919050565b6100ed816100d2565b81146100f857600080fd5b50565b60008151905061010a816100e4565b92915050565b600060208284031215610126576101256100ad565b5b6000610134848285016100fb565b91505092915050565b608051610c9a6101666000396000818161032a015281816104bb01526105820152610c9a6000f3fe6080604052600436106100745760003560e01c8063a48b45551161004e578063a48b4555146100fa578063b60d428814610137578063d7b4750c14610141578063eb91d37e1461017e57610083565b80633ccfd60b1461008d578063893d20e8146100a45780639e87a5cd146100cf57610083565b36610083576100816101a9565b005b61008b6101a9565b005b34801561009957600080fd5b506100a2610328565b005b3480156100b057600080fd5b506100b961057e565b6040516100c69190610833565b60405180910390f35b3480156100db57600080fd5b506100e46105a6565b6040516100f191906108ad565b60405180910390f35b34801561010657600080fd5b50610121600480360381019061011c91906108f9565b6105d0565b60405161012e919061093f565b60405180910390f35b61013f6101a9565b005b34801561014d57600080fd5b5061016860048036038101906101639190610986565b610619565b6040516101759190610833565b60405180910390f35b34801561018a57600080fd5b50610193610660565b6040516101a0919061093f565b60405180910390f35b6000674563918244f400009050806101ec600260009054906101000a900473ffffffffffffffffffffffffffffffffffffffff163461069290919063ffffffff16565b1015610224576040517f094c822700000000000000000000000000000000000000000000000000000000815260040160405180910390fd5b6000600160003373ffffffffffffffffffffffffffffffffffffffff1673ffffffffffffffffffffffffffffffffffffffff16815260200190815260200160002054036102cf576000339080600181540180825580915050600190039060005260206000200160009091909190916101000a81548173ffffffffffffffffffffffffffffffffffffffff021916908373ffffffffffffffffffffffffffffffffffffffff1602179055505b34600160003373ffffffffffffffffffffffffffffffffffffffff1673ffffffffffffffffffffffffffffffffffffffff168152602001908152602001600020600082825461031e91906109e2565b9250508190555050565b7f000000000000000000000000000000000000000000000000000000000000000073ffffffffffffffffffffffffffffffffffffffff163373ffffffffffffffffffffffffffffffffffffffff16146103ad576040517ff8362c2700000000000000000000000000000000000000000000000000000000815260040160405180910390fd5b60008080549050905060005b818110156104565760008082815481106103d6576103d5610a16565b5b9060005260206000200160009054906101000a900473ffffffffffffffffffffffffffffffffffffffff1690506000600160008373ffffffffffffffffffffffffffffffffffffffff1673ffffffffffffffffffffffffffffffffffffffff168152602001908152602001600020819055508180600101925050506103b9565b50600067ffffffffffffffff81111561047257610471610a45565b5b6040519080825280602002602001820160405280156104a05781602001602082028036833780820191505090505b50600090805190602001906104b692919061074b565b5060007f000000000000000000000000000000000000000000000000000000000000000073ffffffffffffffffffffffffffffffffffffffff16476040516104fd90610aa5565b60006040518083038185875af1925050503d806000811461053a576040519150601f19603f3d011682016040523d82523d6000602084013e61053f565b606091505b505090508061057a576040517fa6139a6400000000000000000000000000000000000000000000000000000000815260040160405180910390fd5b5050565b60007f0000000000000000000000000000000000000000000000000000000000000000905090565b6000600260009054906101000a900473ffffffffffffffffffffffffffffffffffffffff16905090565b6000600160008373ffffffffffffffffffffffffffffffffffffffff1673ffffffffffffffffffffffffffffffffffffffff168152602001908152602001600020549050919050565b600080828154811061062e5761062d610a16565b5b9060005260206000200160009054906101000a900473ffffffffffffffffffffffffffffffffffffffff169050919050565b600061068d600260009054906101000a900473ffffffffffffffffffffffffffffffffffffffff166106ca565b905090565b60008061069e836106ca565b905060006305f5e10085836106b39190610aba565b6106bd9190610b2b565b9050809250505092915050565b6000808273ffffffffffffffffffffffffffffffffffffffff1663feaf968c6040518163ffffffff1660e01b815260040160a060405180830381865afa158015610718573d6000803e3d6000fd5b505050506040513d601f19601f8201168201806040525081019061073c9190610be9565b50505091505080915050919050565b8280548282559060005260206000209081019282156107c4579160200282015b828111156107c35782518260006101000a81548173ffffffffffffffffffffffffffffffffffffffff021916908373ffffffffffffffffffffffffffffffffffffffff1602179055509160200191906001019061076b565b5b5090506107d191906107d5565b5090565b5b808211156107ee5760008160009055506001016107d6565b5090565b600073ffffffffffffffffffffffffffffffffffffffff82169050919050565b600061081d826107f2565b9050919050565b61082d81610812565b82525050565b60006020820190506108486000830184610824565b92915050565b6000819050919050565b600061087361086e610869846107f2565b61084e565b6107f2565b9050919050565b600061088582610858565b9050919050565b60006108978261087a565b9050919050565b6108a78161088c565b82525050565b60006020820190506108c2600083018461089e565b92915050565b600080fd5b6108d681610812565b81146108e157600080fd5b50565b6000813590506108f3816108cd565b92915050565b60006020828403121561090f5761090e6108c8565b5b600061091d848285016108e4565b91505092915050565b6000819050919050565b61093981610926565b82525050565b60006020820190506109546000830184610930565b92915050565b61096381610926565b811461096e57600080fd5b50565b6000813590506109808161095a565b92915050565b60006020828403121561099c5761099b6108c8565b5b60006109aa84828501610971565b91505092915050565b7f4e487b7100000000000000000000000000000000000000000000000000000000600052601160045260246000fd5b60006109ed82610926565b91506109f883610926565b9250828201905080821115610a1057610a0f6109b3565b5b92915050565b7f4e487b7100000000000000000000000000000000000000000000000000000000600052603260045260246000fd5b7f4e487b7100000000000000000000000000000000000000000000000000000000600052604160045260246000fd5b600081905092915050565b50565b6000610a8f600083610a74565b9150610a9a82610a7f565b600082019050919050565b6000610ab082610a82565b9150819050919050565b6000610ac582610926565b9150610ad083610926565b9250828202610ade81610926565b91508282048414831517610af557610af46109b3565b5b5092915050565b7f4e487b7100000000000000000000000000000000000000000000000000000000600052601260045260246000fd5b6000610b3682610926565b9150610b4183610926565b925082610b5157610b50610afc565b5b828204905092915050565b600069ffffffffffffffffffff82169050919050565b610b7b81610b5c565b8114610b8657600080fd5b50565b600081519050610b9881610b72565b92915050565b6000819050919050565b610bb181610b9e565b8114610bbc57600080fd5b50565b600081519050610bce81610ba8565b92915050565b600081519050610be38161095a565b92915050565b600080600080600060a08688031215610c0557610c046108c8565b5b6000610c1388828901610b89565b9550506020610c2488828901610bbf565b9450506040610c3588828901610bd4565b9350506060610c4688828901610bd4565b9250506080610c5788828901610b89565b915050929550929590935056fea2646970667358221220662131b619adc0146028db615f348967bea754badba7473451e458d870caaac364736f6c63430008110033",
  "devdoc": {
    "author": "Carl Edward P.",
    "custom:experimental": "This is an experimental contract.",
    "kind": "dev",
    "methods": {
      "fund()": {
        "details": "Implements the price feeds as library"
      },
      "withdraw()": {
        "details": "Implements the price feeds as library"
      }
    },
    "title": "A contract for funding a smart contract",
    "version": 1
  },
  "userdoc": {
    "kind": "user",
    "methods": {
      "fund()": {
        "notice": "This function funds this smart contract"
      },
      "withdraw()": {
        "notice": "This function withdraws all the funds in this contract to the owner. It also resets the funder array and mappings"
      }
    },
    "notice": "This contract is to demo a sample funding contract",
    "version": 1
  },
  "storageLayout": {
    "storage": [
      {
        "astId": 65,
        "contract": "contracts/FundMe.sol:FundMe",
        "label": "s_funders",
        "offset": 0,
        "slot": "0",
        "type": "t_array(t_address)dyn_storage"
      },
      {
        "astId": 69,
        "contract": "contracts/FundMe.sol:FundMe",
        "label": "s_funderToAmountFunded",
        "offset": 0,
        "slot": "1",
        "type": "t_mapping(t_address,t_uint256)"
      },
      {
        "astId": 72,
        "contract": "contracts/FundMe.sol:FundMe",
        "label": "s_priceFeed",
        "offset": 0,
        "slot": "2",
        "type": "t_contract(AggregatorV3Interface)45"
      }
    ],
    "types": {
      "t_address": {
        "encoding": "inplace",
        "label": "address",
        "numberOfBytes": "20"
      },
      "t_array(t_address)dyn_storage": {
        "base": "t_address",
        "encoding": "dynamic_array",
        "label": "address[]",
        "numberOfBytes": "32"
      },
      "t_contract(AggregatorV3Interface)45": {
        "encoding": "inplace",
        "label": "contract AggregatorV3Interface",
        "numberOfBytes": "20"
      },
      "t_mapping(t_address,t_uint256)": {
        "encoding": "mapping",
        "key": "t_address",
        "label": "mapping(address => uint256)",
        "numberOfBytes": "32",
        "value": "t_uint256"
      },
      "t_uint256": {
        "encoding": "inplace",
        "label": "uint256",
        "numberOfBytes": "32"
      }
    }
  }
}