{
  "address": "0x2534181b665d2E16831b41F111Bb5102EaF9F50d",
  "abi": [
    {
      "inputs": [
        {
          "internalType": "address",
          "name": "priceFeedAddress",
          "type": "address"
        }
      ],
      "stateMutability": "nonpayable",
      "type": "constructor"
    },
    {
      "inputs": [],
      "name": "FundMe__CallFailed",
      "type": "error"
    },
    {
      "inputs": [],
      "name": "FundMe__NotEnoughEther",
      "type": "error"
    },
    {
      "inputs": [],
      "name": "FundMe__Unauthorized",
      "type": "error"
    },
    {
      "stateMutability": "payable",
      "type": "fallback"
    },
    {
      "inputs": [],
      "name": "fund",
      "outputs": [],
      "stateMutability": "payable",
      "type": "function"
    },
    {
      "inputs": [
        {
          "internalType": "address",
          "name": "funder",
          "type": "address"
        }
      ],
      "name": "getAmountFunded",
      "outputs": [
        {
          "internalType": "uint256",
          "name": "",
          "type": "uint256"
        }
      ],
      "stateMutability": "view",
      "type": "function"
    },
    {
      "inputs": [],
      "name": "getCurrentPrice",
      "outputs": [
        {
          "internalType": "uint256",
          "name": "",
          "type": "uint256"
        }
      ],
      "stateMutability": "view",
      "type": "function"
    },
    {
      "inputs": [
        {
          "internalType": "uint256",
          "name": "index",
          "type": "uint256"
        }
      ],
      "name": "getFunder",
      "outputs": [
        {
          "internalType": "address",
          "name": "",
          "type": "address"
        }
      ],
      "stateMutability": "view",
      "type": "function"
    },
    {
      "inputs": [],
      "name": "getOwner",
      "outputs": [
        {
          "internalType": "address",
          "name": "",
          "type": "address"
        }
      ],
      "stateMutability": "view",
      "type": "function"
    },
    {
      "inputs": [],
      "name": "getPriceFeed",
      "outputs": [
        {
          "internalType": "contract AggregatorV3Interface",
          "name": "",
          "type": "address"
        }
      ],
      "stateMutability": "view",
      "type": "function"
    },
    {
      "inputs": [],
      "name": "withdraw",
      "outputs": [],
      "stateMutability": "nonpayable",
      "type": "function"
    },
    {
      "stateMutability": "payable",
      "type": "receive"
    }
  ],
  "transactionHash": "0x17648ff1f0d95672c192173af6d59114426da979711e03b8c036ad0329bbff85",
  "args": [
    "0xD4a33860578De61DBAbDc8BFdb98FD742fA7028e"
  ],
  "numDeployments": 3,
  "solcInputHash": "7d58981ff3bb0931d043042e415b90eb",
  "bytecode": "0x60a060405234801561001057600080fd5b50604051610e8c380380610e8c83398181016040528101906100329190610110565b3373ffffffffffffffffffffffffffffffffffffffff1660808173ffffffffffffffffffffffffffffffffffffffff168152505080600260006101000a81548173ffffffffffffffffffffffffffffffffffffffff021916908373ffffffffffffffffffffffffffffffffffffffff1602179055505061013d565b600080fd5b600073ffffffffffffffffffffffffffffffffffffffff82169050919050565b60006100dd826100b2565b9050919050565b6100ed816100d2565b81146100f857600080fd5b50565b60008151905061010a816100e4565b92915050565b600060208284031215610126576101256100ad565b5b6000610134848285016100fb565b91505092915050565b608051610d266101666000396000818161032a015281816104bb01526105820152610d266000f3fe6080604052600436106100745760003560e01c8063a48b45551161004e578063a48b4555146100fa578063b60d428814610137578063d7b4750c14610141578063eb91d37e1461017e57610083565b80633ccfd60b1461008d578063893d20e8146100a45780639e87a5cd146100cf57610083565b36610083576100816101a9565b005b61008b6101a9565b005b34801561009957600080fd5b506100a2610328565b005b3480156100b057600080fd5b506100b961057e565b6040516100c69190610847565b60405180910390f35b3480156100db57600080fd5b506100e46105a6565b6040516100f191906108c1565b60405180910390f35b34801561010657600080fd5b50610121600480360381019061011c919061090d565b6105d0565b60405161012e9190610953565b60405180910390f35b61013f6101a9565b005b34801561014d57600080fd5b506101686004803603810190610163919061099a565b610619565b6040516101759190610847565b60405180910390f35b34801561018a57600080fd5b50610193610660565b6040516101a09190610953565b60405180910390f35b6000674563918244f400009050806101ec600260009054906101000a900473ffffffffffffffffffffffffffffffffffffffff163461069290919063ffffffff16565b1015610224576040517f094c822700000000000000000000000000000000000000000000000000000000815260040160405180910390fd5b6000600160003373ffffffffffffffffffffffffffffffffffffffff1673ffffffffffffffffffffffffffffffffffffffff16815260200190815260200160002054036102cf576000339080600181540180825580915050600190039060005260206000200160009091909190916101000a81548173ffffffffffffffffffffffffffffffffffffffff021916908373ffffffffffffffffffffffffffffffffffffffff1602179055505b34600160003373ffffffffffffffffffffffffffffffffffffffff1673ffffffffffffffffffffffffffffffffffffffff168152602001908152602001600020600082825461031e91906109f6565b9250508190555050565b7f000000000000000000000000000000000000000000000000000000000000000073ffffffffffffffffffffffffffffffffffffffff163373ffffffffffffffffffffffffffffffffffffffff16146103ad576040517ff8362c2700000000000000000000000000000000000000000000000000000000815260040160405180910390fd5b60008080549050905060005b818110156104565760008082815481106103d6576103d5610a2a565b5b9060005260206000200160009054906101000a900473ffffffffffffffffffffffffffffffffffffffff1690506000600160008373ffffffffffffffffffffffffffffffffffffffff1673ffffffffffffffffffffffffffffffffffffffff168152602001908152602001600020819055508180600101925050506103b9565b50600067ffffffffffffffff81111561047257610471610a59565b5b6040519080825280602002602001820160405280156104a05781602001602082028036833780820191505090505b50600090805190602001906104b692919061075f565b5060007f000000000000000000000000000000000000000000000000000000000000000073ffffffffffffffffffffffffffffffffffffffff16476040516104fd90610ab9565b60006040518083038185875af1925050503d806000811461053a576040519150601f19603f3d011682016040523d82523d6000602084013e61053f565b606091505b505090508061057a576040517fa6139a6400000000000000000000000000000000000000000000000000000000815260040160405180910390fd5b5050565b60007f0000000000000000000000000000000000000000000000000000000000000000905090565b6000600260009054906101000a900473ffffffffffffffffffffffffffffffffffffffff16905090565b6000600160008373ffffffffffffffffffffffffffffffffffffffff1673ffffffffffffffffffffffffffffffffffffffff168152602001908152602001600020549050919050565b600080828154811061062e5761062d610a2a565b5b9060005260206000200160009054906101000a900473ffffffffffffffffffffffffffffffffffffffff169050919050565b600061068d600260009054906101000a900473ffffffffffffffffffffffffffffffffffffffff166106ce565b905090565b60008061069e836106ce565b90506000670de0b6b3a764000085836106b79190610ace565b6106c19190610b3f565b9050809250505092915050565b6000808273ffffffffffffffffffffffffffffffffffffffff1663feaf968c6040518163ffffffff1660e01b815260040160a060405180830381865afa15801561071c573d6000803e3d6000fd5b505050506040513d601f19601f820116820180604052508101906107409190610bfd565b5050509150506402540be400816107579190610c78565b915050919050565b8280548282559060005260206000209081019282156107d8579160200282015b828111156107d75782518260006101000a81548173ffffffffffffffffffffffffffffffffffffffff021916908373ffffffffffffffffffffffffffffffffffffffff1602179055509160200191906001019061077f565b5b5090506107e591906107e9565b5090565b5b808211156108025760008160009055506001016107ea565b5090565b600073ffffffffffffffffffffffffffffffffffffffff82169050919050565b600061083182610806565b9050919050565b61084181610826565b82525050565b600060208201905061085c6000830184610838565b92915050565b6000819050919050565b600061088761088261087d84610806565b610862565b610806565b9050919050565b60006108998261086c565b9050919050565b60006108ab8261088e565b9050919050565b6108bb816108a0565b82525050565b60006020820190506108d660008301846108b2565b92915050565b600080fd5b6108ea81610826565b81146108f557600080fd5b50565b600081359050610907816108e1565b92915050565b600060208284031215610923576109226108dc565b5b6000610931848285016108f8565b91505092915050565b6000819050919050565b61094d8161093a565b82525050565b60006020820190506109686000830184610944565b92915050565b6109778161093a565b811461098257600080fd5b50565b6000813590506109948161096e565b92915050565b6000602082840312156109b0576109af6108dc565b5b60006109be84828501610985565b91505092915050565b7f4e487b7100000000000000000000000000000000000000000000000000000000600052601160045260246000fd5b6000610a018261093a565b9150610a0c8361093a565b9250828201905080821115610a2457610a236109c7565b5b92915050565b7f4e487b7100000000000000000000000000000000000000000000000000000000600052603260045260246000fd5b7f4e487b7100000000000000000000000000000000000000000000000000000000600052604160045260246000fd5b600081905092915050565b50565b6000610aa3600083610a88565b9150610aae82610a93565b600082019050919050565b6000610ac482610a96565b9150819050919050565b6000610ad98261093a565b9150610ae48361093a565b9250828202610af28161093a565b91508282048414831517610b0957610b086109c7565b5b5092915050565b7f4e487b7100000000000000000000000000000000000000000000000000000000600052601260045260246000fd5b6000610b4a8261093a565b9150610b558361093a565b925082610b6557610b64610b10565b5b828204905092915050565b600069ffffffffffffffffffff82169050919050565b610b8f81610b70565b8114610b9a57600080fd5b50565b600081519050610bac81610b86565b92915050565b6000819050919050565b610bc581610bb2565b8114610bd057600080fd5b50565b600081519050610be281610bbc565b92915050565b600081519050610bf78161096e565b92915050565b600080600080600060a08688031215610c1957610c186108dc565b5b6000610c2788828901610b9d565b9550506020610c3888828901610bd3565b9450506040610c4988828901610be8565b9350506060610c5a88828901610be8565b9250506080610c6b88828901610b9d565b9150509295509295909350565b6000610c8382610bb2565b9150610c8e83610bb2565b9250828202610c9c81610bb2565b91507f80000000000000000000000000000000000000000000000000000000000000008414600084121615610cd457610cd36109c7565b5b8282058414831517610ce957610ce86109c7565b5b509291505056fea2646970667358221220f957546ebdc1c31222896762342a878a97d092ed4e410c1a6a8e3aa9e80a7b6d64736f6c63430008110033",
  "devdoc": {
    "author": "Carl Edward P.",
    "custom:experimental": "This is an experimental contract.",
    "kind": "dev",
    "methods": {
      "fund()": {
        "details": "Implements the price feeds as library"
      },
      "withdraw()": {
        "details": "Implements the price feeds as library"
      }
    },
    "title": "A contract for funding a smart contract",
    "version": 1
  },
  "userdoc": {
    "kind": "user",
    "methods": {
      "fund()": {
        "notice": "This function funds this smart contract"
      },
      "withdraw()": {
        "notice": "This function withdraws all the funds in this contract to the owner. It also resets the funder array and mappings"
      }
    },
    "notice": "This contract is to demo a sample funding contract",
    "version": 1
  },
  "storageLayout": {
    "storage": [
      {
        "astId": 65,
        "contract": "contracts/FundMe.sol:FundMe",
        "label": "s_funders",
        "offset": 0,
        "slot": "0",
        "type": "t_array(t_address)dyn_storage"
      },
      {
        "astId": 69,
        "contract": "contracts/FundMe.sol:FundMe",
        "label": "s_funderToAmountFunded",
        "offset": 0,
        "slot": "1",
        "type": "t_mapping(t_address,t_uint256)"
      },
      {
        "astId": 72,
        "contract": "contracts/FundMe.sol:FundMe",
        "label": "s_priceFeed",
        "offset": 0,
        "slot": "2",
        "type": "t_contract(AggregatorV3Interface)45"
      }
    ],
    "types": {
      "t_address": {
        "encoding": "inplace",
        "label": "address",
        "numberOfBytes": "20"
      },
      "t_array(t_address)dyn_storage": {
        "base": "t_address",
        "encoding": "dynamic_array",
        "label": "address[]",
        "numberOfBytes": "32"
      },
      "t_contract(AggregatorV3Interface)45": {
        "encoding": "inplace",
        "label": "contract AggregatorV3Interface",
        "numberOfBytes": "20"
      },
      "t_mapping(t_address,t_uint256)": {
        "encoding": "mapping",
        "key": "t_address",
        "label": "mapping(address => uint256)",
        "numberOfBytes": "32",
        "value": "t_uint256"
      },
      "t_uint256": {
        "encoding": "inplace",
        "label": "uint256",
        "numberOfBytes": "32"
      }
    }
  }
}